:100000000C942A001895000018950000189500001F
:10001000189500001895000018950000189500002C
:10002000189500001895000018950000189500001C
:10003000189500001895000018950000189500000C
:1000400018950000189500001895000018950000FC
:10005000189500008FE58DBFC8E3E0E24E2E84E0E6
:100060008EBFD4E0F4E05F2EA89584B7082E877F7A
:1000700084BF88E1992781BD91BDEEEFF3E0A0E652
:10008000B0E088278D933197E9F766248FEF81BB25
:1000900081E08093600000916000023318F011F05D
:1000A0000C947C0080E88093620081E08093610082
:1000B00000916100043018F011F00C94740091E08C
:1000C000A2E6B0E00E94DA00A2E6B0E08C9182BB2A
:1000D00088EC90E00E94CB00A1E6B0E08C918F5FAD
:1000E0008C9310F40C945800A0E6B0E08C918F5FD4
:1000F0008C9310F40C944B00E1E0F0E00E94BC0003
:1001000081E08093600000916000023318F011F0EC
:100110000C94B40080E18093620081E080936100E0
:1001200000916100043018F011F00C94AC0091E0E3
:10013000A2E6B0E00E94E400A2E6B0E08C9182BBAF
:1001400088EC90E00E94CB00A1E6B0E08C918F5F3C
:100150008C9310F40C949000A0E6B0E08C918F5F2B
:100160008C9310F40C948300E1E0F0E00E94BC005A
:100170000C944800F894FFCF88EE93E00CD03197B0
:10018000D9F708953197F1F70895689462F80895C2
:10019000E89462F80895EF93FF93EE27E82BE92B9C
:1001A00031F0EAEFF0E03197F1F70197D1F7FF91E5
:1001B000EF910895903039F08C91880F08F48160A8
:1001C0009A95D9F78C930895903039F08C91869553
:0C01D00008F480689A95D9F78C93089584
:00000001FF
